:100000000C9434000C943E000C943E000C943E0082
:100010000C943E000C943E000C943E000C943E0068
:100020000C943E000C943E000C943E000C943E0058
:100030000C943E000C943E000C943E000C943E0048
:100040000C943E000C943E000C943E000C943E0038
:100050000C943E000C943E000C943E000C943E0028
:100060000C943E000C943E0011241FBECFEFD8E04C
:10007000DEBFCDBF0E9459000C94DD000C9400003F
:10008000E0EBF0E08081836080838081806A808300
:10009000E1EBF0E0808184608083089515B81BB89F
:1000A000089585B96BB908958093B3006093B40047
:1000B00008958FEF84B98CE18AB90E9440000E94B4
:1000C0004E000E94BE002FEF80E792E0215080405A
:1000D0009040E1F700C0000060E070E080E090E058
:1000E0000E9454000E944E000E94D60090E081348D
:1000F000910559F46EE670E08EE690E00E9454009F
:1001000068E188E20E945100DECF8234910559F403
:1001100068E770E088E790E00E9454006CE088E1B6
:100120000E945100D0CF8334910559F46FEA70E0FA
:100130008FEA90E00E9454006CE088E20E94510037
:10014000C2CF8434910559F46FEA70E08FEA90E0F1
:100150000E94540068E188E10E945100B4CF8335C9
:10016000910509F0B0CF60E070E080E090E00E947F
:10017000540060E080E00E945100A5CF1092C500BD
:1001800080E18093C400E0ECF0E0808182608083B5
:10019000E2ECF0E0808186608083E1ECF0E0808139
:1001A0008061808380818860808308958091C00011
:0E01B0008823E4F78091C6000895F894FFCFED
:00000001FF
