S02000006D6F746F725F6472697665725F6D6F64756C655F4C616E652E7372656324
S11300000C9434000C943E000C943E000C943E007E
S11300100C943E000C943E000C943E000C943E0064
S11300200C943E000C943E000C943E000C943E0054
S11300300C943E000C943E000C943E000C943E0044
S11300400C943E000C943E000C943E000C943E0034
S11300500C943E000C943E000C943E000C943E0024
S11300600C943E000C943E0011241FBECFEFD8E048
S1130070DEBFCDBF0E9440000C94D7000C9400005A
S11300808FEF84B9E0E8F0E0808183608083808131
S113009080628083E1E8F0E0808184608083E0EB2B
S11300A0F0E0808183608083808180688083E1EBDD
S11300B0F0E080818460808315B80E94B800D0E0AD
S11300C0C0E08C2F8D2B85B92FEF80E792E0215073
S11300D080409040E1F700C0000015B80E94D000B5
S11300E090E08134910561F488EC90E090938B006A
S11300F080938A0088EC8093B300D8E1C5E0E1CF17
S11301008234910561F486E990E090938B008093AA
S11301108A0086E98093B300D8E2C6E0D2CF833464
S1130120910559F484E690E090938B0080938A00C3
S11301308093B300D8E1C6E0C4CF8434910559F468
S113014084E690E090938B0080938A008093B300C0
S1130150D8E2C5E0B6CF8335910509F0B2CF10924D
S11301608B0010928A001092B300D0E0C0E0A9CFB7
S11301701092C50080E18093C400E0ECF0E080813F
S113018082608083E2ECF0E0808186608083E1EC31
S1130190F0E080818061808380818860808308951D
S11301A08091C0008823E4F78091C6000895F894F4
S10501B0FFCF7B
S9030000FC
